:020000040800F2
:10000000A0060020CD010008C5040008BD040008BA
:10001000C104000887020008E5060008000000008F
:100020000000000000000000000000006D05000856
:100030008B02000800000000C704000881060008C9
:10004000E7010008E7010008E7010008E7010008F0
:10005000E7010008E7010008E7010008E7010008E0
:10006000E7010008E7010008E7010008E7010008D0
:10007000E7010008E7010008E7010008E7010008C0
:10008000E7010008E7010008E7010008E7010008B0
:10009000E7010008E7010008E7010008E7010008A0
:1000A000E7010008E7010008E7010008E701000890
:1000B000E7010008E7010008E7010008E701000880
:1000C000E7010008E7010008E7010008E701000870
:1000D000E7010008E7010008E7010008E701000860
:1000E000E7010008E7010008E7010008E701000850
:1000F000E7010008E7010008E7010008E701000840
:10010000E7010008E7010008E7010008E70100082F
:10011000E7010008E7010008E7010008E70100081F
:10012000E7010008E7010008E7010008E70100080F
:1001300000F002F800F03AF80AA090E8000C8244BF
:100140008344AAF10107DA4501D100F02FF8AFF29C
:10015000090EBAE80F0013F0010F18BFFB1A43F0A5
:100160000103184794060000B4060000103A24BFAB
:1001700078C878C1FAD8520724BF30C830C144BF0C
:1001800004680C607047000000230024002500264E
:10019000103A28BF78C1FBD8520728BF30C148BFEA
:1001A0000B6070471FB51FBD10B510BD00F031F8D2
:1001B0001146FFF7F7FF00F0FBFA00F04FF803B429
:1001C000FFF7F2FF03BC00F057F800000948804732
:1001D00009480047FEE7FEE7FEE7FEE7FEE7FEE729
:1001E000FEE7FEE7FEE7FEE704480549054A064B41
:1001F000704700008506000831010008A0000020BB
:10020000A0060020A0020020A00200207047704736
:100210007047754600F02CF8AE4605006946534617
:1002200020F00700854618B020B5FFF7DDFFBDE8D8
:1002300020404FF000064FF000074FF000084FF04D
:10024000000B21F00701AC46ACE8C009ACE8C009DE
:10025000ACE8C009ACE8C0098D46704710B504464B
:10026000AFF300802046BDE81040FFF7A8BF0000B4
:10027000004870474000002001491820ABBEFEE74F
:1002800026000200704700BFFEE7704730B5044605
:1002900004254FF4302000F06FF80546042D17D1E7
:1002A0000C48006940F002000A49086108464461B0
:1002B000006940F0400008614FF4302000F05CF825
:1002C00005460448006941F6FD710840014908618E
:1002D000284630BD0020024004200B49C96801F0C7
:1002E000010109B101200EE00749C96801F00401CC
:1002F00009B1022007E00449C96801F0100109B101
:10030000032000E0042070470020024003480069F9
:1003100040F0800001490861704700000020024061
:1003200070B504460D460426F00200F025F8064696
:10033000042E11D10948006940F001000749086105
:100340002580F00200F018F806460448006941F6DE
:10035000FE71084001490861304670BD002002402E
:1003600002480349486003484860704723016745D5
:1003700000200240AB89EFCD00B502460423FFF711
:10038000ABFF034603E0FFF7A7FF0346521E012B16
:1003900001D1002AF7D102B90523184600BD2DE985
:1003A000F0410246002500260020002300240027FB
:1003B00091F803C00CF00F0591F803C00CF0100C7D
:1003C000BCF1000F03D091F802C04CEA050591F88A
:1003D00000C0BCF1000F31D0146800202BE04FF0BA
:1003E000010C0CFA00F3B1F800C00CEA03069E42BF
:1003F00020D183004FF00F0C0CFA03F7BC4305FA31
:1004000003FC4CEA040491F803C0BCF1280F06D1A8
:100410004FF0010C0CFA00FCC2F814C00AE091F88D
:1004200003C0BCF1480F05D14FF0010C0CFA00FCE1
:10043000C2F810C0401C0828D1D31460B1F800C025
:10044000BCF1FF0F34DD546800202EE000F1080CF1
:100450004FF0010808FA0CF3B1F800C00CEA0306EB
:100460009E4221D183004FF00F0C0CFA03F7BC43DE
:1004700005FA03FC4CEA040491F803C0BCF1280F10
:1004800005D100F1080C08FA0CF8C2F8148091F8B4
:1004900003C0BCF1480F07D100F1080C4FF0010870
:1004A00008FA0CF8C2F81080401C0828CED354601B
:1004B000BDE8F081416170470161704700BFFEE710
:1004C00000BFFEE77047704729B1064A92690243B0
:1004D000044B9A6104E0034A92698243014B9A619A
:1004E000704700000010024030B503460C46154628
:1004F000002207E0184600F008F824F812009B1CC0
:10050000501C82B2AA42F5DB30BD01460888704714
:100510002DE9F04106460F461546B5F5007F01DD91
:10052000BDE8F081FFF71CFF0E48FFF7AFFE4CF26D
:100530005030FFF721FF0C48006920F002000A4903
:100540000861002408E037F81410022202FB04605E
:10055000FFF7E6FE601C84B2AC42F4DBFFF7D6FE88
:1005600000BFDDE700F0000800200240704710B532
:1005700000F002F810BD00000CB5002001900090C2
:100580003348006840F480303149086000BF30488B
:10059000006800F4003000900198401C0190009821
:1005A00018B90198B0F5A06FF1D12948006800F49E
:1005B000003010B10120009001E000200090009870
:1005C000012843D12348006840F010002149086009
:1005D0000846006820F0030008600846006840F004
:1005E000020008601A484068194948600846406897
:1005F00048600846406840F48060486008464068AB
:1006000020F47C1048600846406840F4E8104860D8
:100610000846006840F08070086000BF0C48006821
:1006200000F000700028F9D00948406820F003006D
:10063000074948600846406840F00200486000BF33
:100640000348406800F00C000828F9D10CBD0000F8
:100650000010024000200240042808D14FF0E021A1
:10066000096941F004014FF0E022116107E04FF009
:10067000E021096921F004014FF0E0221161704787
:100680007047000010B51348006840F001001149A0
:10069000086008464068104908400E49486008460E
:1006A00000680E4908400B4908600846006820F4BD
:1006B000802008600846406820F4FE0048604FF43F
:1006C0001F008860FFF753FF4FF000600449086087
:1006D00010BD0000001002400000FFF8FFFFF6FE12
:1006E00008ED00E000BFFEE710B56FF00400FFF773
:1006F000B3FF0A4800680A49B0FBF1F009490870E5
:100700000846007800EB4001C1EBC0104FF6FF71C6
:1007100001EAC0000449088010BD00000400002068
:1007200000127A0000000020020000200146114A59
:1007300012884A434FF0E0235A6100229A611A4618
:10074000126942F001021A6100BF4FF0E022106905
:1007500000F001021AB100F48032002AF5D04FF007
:10076000E022126922F001024FF0E0231A61002218
:100770009A6170470200002008B501211020FFF7A0
:10078000A3FE4FF48040ADF8000001208DF8020078
:1007900010208DF8030069460448FFF700FE4FF46F
:1007A00080410248FFF788FE08BD000000100140AC
:1007B000FFF79AFFFFF7E0FF0A220B490B48FFF70C
:1007C000A7FE6420FFF7B2FF0A2209490748FFF796
:1007D0008BFE0748408AFC2804D14FF4804105482D
:1007E000FFF768FE00BFFEE71800002000F00008D9
:1007F0002C00002000100140180800080000002014
:100800002C0000006C010008440800082C000020A7
:1008100074060000880100080000000000A24A04DD
:1008200000000000000000000102030406070809A0
:1008300055006700890045002300A1004500AC0079
:04084000B500FC0003
:0400000508000131BD
:00000001FF
